:020000040800F2
:1000000030050020AD010008D11900084F17000885
:10001000CD190008B9020008F51F00080000000013
:10002000000000000000000000000000D7190008D8
:10003000BD02000800000000D5190008D919000809
:10004000C7010008C7010008C7010008C701000870
:10005000C7010008C7010008C7010008C701000860
:10006000C7010008C7010008C7010008C701000850
:10007000C7010008C7010008C7010008C701000840
:10008000C7010008C7010008C70100080000000000
:10009000000000000000000000000000C701000890
:1000A000C7010008C7010008C7010008C701000810
:1000B000A91A0008C7010008B91A0008C7010008FA
:1000C000C7010008C7010008C7010008C7010008F0
:1000D000C7010008C7010008C701000800000000B0
:1000E000C7010008C7010008C701000800000000A0
:1000F000000000000000000000000000C701000830
:1001000000000000C7010008C7010008C70100087F
:1001100000000000000000000000000000000000DF
:10012000C7010008C7010008C7010008C70100088F
:10013000C7010008000000000000000000000000EF
:10014000000000000000000000000000C7010008DF
:10015000C7010008C7010008C7010008C70100085F
:10016000C7010008C70100080000000000000000EF
:10017000000000000000000000000000000000007F
:1001800000000000C701000800000000000000009F
:10019000C7010008DFF810D000F07CF800480047E5
:1001A0009D200008AFF300803005002006488047FE
:1001B00006480047FEE7FEE7FEE7FEE7FEE7FEE74C
:1001C000FEE7FEE7FEE7FEE7951A00089501000846
:1001D0002DE9F05F0546002092469B46884606467C
:1001E000814640241BE0284641464746224600F00F
:1001F00041F853465A46C01A914110D31146184649
:10020000224600F028F82D1A67EB01084F462246D7
:100210000120002100F01FF817EB00094E41201EBD
:10022000A4F10104DFDC484631462A464346BDE8D6
:10023000F09FD2B201E000F8012B491EFBD27047BB
:100240000022F6E710B513460A4604461946FFF7A2
:10025000F0FF204610BD202A04DB203A00FA02F10C
:10026000002070479140C2F1200320FA03F31943A4
:1002700090407047202A04DB203A21FA02F0002146
:10028000704721FA02F3D040C2F1200291400843A6
:1002900019467047064C074D06E0E06840F0010340
:1002A00094E8070098471034AC42F6D3FFF776FF86
:1002B000182100083821000800BFFEE7704772B619
:1002C00000BFFEE7F8B502460B46002500240020DB
:1002D0000021CFE0012606FA01F51E6806EA0504B2
:1002E000AC4275D11E7906F00306012E04D01E79AA
:1002F00006F00306022E13D190684F000326BE407D
:10030000B0434F00DE68BE40304390605068012625
:100310008E40B0431E79C6F300168E4030435060C5
:100320001E7906F00306032E09D0D0684F0003267D
:10033000BE40B0434F009E68BE403043D0601E793F
:1003400006F00306022E13D1CF0802F1200656F85C
:1003500027004E07F70E0F26BE40B0434F07FF0E93
:100360001E69BE403043CF0802F1200646F8270040
:1003700010684F000326BE40B0431E7906F0030606
:100380004F00BE40304310605E6806F08056B6F104
:10039000805F6ED100BF00260096384E366846F466
:1003A0008046364F3E603E46366806F480460096EC
:1003B00000BF00BF324E8F0856F827008E07370F58
:1003C0000F26BE40B0432F4EB24202D1002615E0A8
:1003D0004FE02D4EB24201D101260FE02B4EB2422A
:1003E00001D102260AE02A4EB24201D1032605E0DD
:1003F000284EB24201D1042600E007268F073F0FA6
:10040000BE4030431E4E8F0846F82700224E30680B
:10041000A0435E6806F48036B6F5803F00D12043E5
:100420001D4E3060361D3068A0435E6806F400360D
:10043000B6F5003F00D12043174E361D3060361D03
:100440003068A0435E6806F48016B6F5801F00D1C0
:100450002043114E08363060361D3068A0435E6878
:1004600006F40016B6F5001F00D120430A4E0C36E4
:100470003060491C1029FFF42DAFF8BD443802400C
:100480000838014000000240000402400008024019
:10049000000C024000100240003C01400AB18161A2
:1004A00001E00B0483617047014800687047000059
:1004B0000000002003480068034909780844014906
:1004C00008607047000000200800002010B50D48AB
:1004D000006840F400700B4908600846006840F46A
:1004E000806008600846006840F48070086003205F
:1004F00000F0A2F8002000F007F800F02BF8002030
:1005000010BD0000003C024070B504460E48007863
:100510004FF47A71B1FBF0F00C490968B1FBF0F5CA
:10052000284600F02BFC08B1012070BD102C07D22A
:1005300000222146501E00F041F80548046001E009
:100540000120F2E70020F0E7080000200C00002066
:100550000400002008B500BF002000900E4800688D
:1005600040F480400C4908600846006800F4804070
:10057000009000BF00BF00BF00200090081F00686F
:1005800040F08050091F08600846006800F0805065
:10059000009000BF00BF08BD443802400146084635
:1005A000002809DB00F01F0301229A4043099B0049
:1005B00003F1E023C3F8002100BF70472DE9F05F8D
:1005C00080460D461646002701F01EFD07463946B7
:1005D0002A46334601F00700C0F1070ABAF1040FBA
:1005E00002D94FF0040A01E0C0F1070AD14600F138
:1005F000040ABAF1070F02D24FF0000A01E0A0F19D
:10060000030AD4464FF0010A0AFA09FAAAF1010ACC
:100610000AEA020A0AFA0CFA4FF0010B0BFA0CFB79
:10062000ABF1010B0BEA030B4AEA0B0421464046EF
:1006300001F0F2FCBDE8F09F00BF00F00702064B9E
:1006400019684FF6FF031940044B0B4343EA02219C
:10065000014B196000BF70470CED00E00000FA0587
:1006600070B504460D460CB9012070BD58480068AD
:1006700000F00700A84209D255490D7008460068ED
:1006800000F00700A84201D00120EEE7207800F03A
:10069000020002281DD1207800F00400042805D1B2
:1006A0004C48006840F4E0504A490860207800F067
:1006B0000800082805D14748006840F460404549D3
:1006C00008604448006820F0F000A16808434149F0
:1006D0000860207800F00100A8B36068012807D105
:1006E0003C4808380068C0F34040B8B90120BCE776
:1006F0006068022802D06068032807D135480838AE
:100700000068C0F3406048B90120AEE731480838BE
:100710000068C0F3400008B90120A6E72D48006832
:1007200020F00300616808432A490860FFF7BCFE17
:10073000064609E0FFF7B8FE801B41F28831884287
:1007400002D9032091E707E02248006800F00C007E
:100750006168B0EB810FEDD11D48006800F0070023
:10076000A84209D91A490D700846006800F0070030
:10077000A84201D0012078E7207800F00400042886
:1007800007D11448006820F4E050E168084311499B
:100790000860207800F00800082808D10D4800689B
:1007A00020F46040216940EAC1000A49086000F075
:1007B0003FF808490968C1F30311074A515CC84072
:1007C0000649086006480068FFF79EFE00204CE7D7
:1007D000003C024008380240002100080C000020C4
:1007E0000400002001480068704700000C00002051
:1007F00000B5FFF7F7FF04490968C1F38221034AF6
:10080000515CC84000BD00000838024010210008BB
:1008100000B5FFF7E7FF04490968C1F34231034A15
:10082000515CC84000BD000008380240102100089B
:100830002DE9F047002400250026A1462548006840
:1008400000F00C0020B1042805D008283AD105E0BA
:10085000DFF8849039E0DFF8849036E01D48001F0F
:10086000006800F03F041B48001F006800F480008F
:1008700078B11A481749091F0968C1F38811A0FB0C
:1008800001700146224600233846FFF7A1FC0546C9
:100890000EE011480F49091F0968C1F38811A0FB38
:1008A00001700146224600233846FFF791FC0546B9
:1008B0000848001F0068C0F30140401C4600B5FB1B
:1008C000F6F902E0DFF8109000BF00BF4846BDE82F
:1008D000F0870000083802400024F40040787D01D1
:1008E000F8B504460CB90120F8BD207800F00100ED
:1008F000002874D0F948006800F00C0004280DD0DE
:10090000F648006800F00C00082813D1F348001FD7
:10091000006800F48000B0F5800F0BD1EF48083874
:100920000068C0F34040002859D06068002856D1C4
:100930000120D9E700BF6068B0F5803F08D1E748E3
:100940000838006840F48030E449083908601EE047
:100950006068B0F5A02F0DD1E0480838006840F479
:100960008020DE49083908600846006840F480307D
:1009700008600CE0D9480838006820F48030D74976
:10098000083908600846006820F48020086000BF2D
:10099000606890B1FFF788FD054606E0FFF784FD2B
:1009A000401B642801D903209EE7CC480838006822
:1009B000C0F340400028F1D011E0FFF775FD054677
:1009C00006E0FFF771FD401B642801D903208BE787
:1009D000C24808380068C0F340400028F1D12078B0
:1009E00000F0020002285FD1BC48006800F00C0053
:1009F00058B1BA48006800F00C0008281CD1B7486C
:100A0000001F006800F48000B0B9B44808380068DE
:100A1000C0F3400020B1E068012801D0012063E765
:100A2000AE480838006820F0F800216940EAC100AB
:100A3000AA490839086037E0E06800B30120A849F6
:100A40000860FFF731FD054606E0FFF72DFD401B6E
:100A5000022801D9032047E7A04808380068C0F3FE
:100A600040000028F1D09D480838006820F0F800C8
:100A7000216940EAC10099490839086014E0002062
:100A800097490860FFF710FD054606E0FFF70CFDEB
:100A9000401B022801D9032026E790480838006847
:100AA000C0F340000028F1D1207800F008000828A9
:100AB0002CD16069A8B101208A490860FFF7F4FCD5
:100AC000054606E0FFF7F0FC401B022801D9032091
:100AD0000AE782486C300068C0F340000028F1D07B
:100AE00014E000207F490860FFF7DEFC054606E0C1
:100AF000FFF7DAFC401B022801D90320F4E677480F
:100B00006C300068C0F340000028F1D1207800F07C
:100B10000400042870D1002770483830006800F0C5
:100B2000805090B900BF002000906C4838300068B9
:100B300040F080506949383108600846006800F08C
:100B40008050009000BF00BF01276748006800F494
:100B50008070B0B96448006840F4807062490860F1
:100B6000FFF7A2FC054606E0FFF79EFC401B0228AB
:100B700001D90320B8E65C48006800F480700028C2
:100B8000F2D000BFA068012808D15448683000683E
:100B900040F001005149683108601DE0A068052857
:100BA0000DD14E486830006840F004004B49683170
:100BB00008600846006840F0010008600CE0474803
:100BC0006830006820F00100444968310860084638
:100BD000006820F00400086000BFA068A8B1FFF71B
:100BE00063FC054609E0FFF75FFC401B41F28831DA
:100BF000884202D9032077E626E03848683000684A
:100C0000C0F340000028EED013E0FFF74DFC05468E
:100C100008E0FFF749FC401B41F28831884201D9C6
:100C2000032061E62D4868300068C0F340000028CA
:100C3000EFD1012F07D129483830006820F08050CB
:100C400026493831086000BFA069002845D02348F4
:100C5000006800F00C0008285DD0A069022845D18A
:100C600000201F490866FFF71FFC054606E0FFF756
:100C70001BFC401B022801D9032035E61748083821
:100C80000068C0F340600028F1D1D4E907010843AF
:100C9000616A40EA81110122A06AC2EB500041EA78
:100CA00000412C20005D41EA00600C49091F0860EA
:100CB00001200B490866FFF7F7FB054606E0FFF742
:100CC000F3FB401B022801D903200DE60348083836
:100CD0000068C0F340600028F1D049E008380240C5
:100CE00000004742800E474200700040002021492A
:100CF0000866FFF7D9FB054606E0FFF7D5FB401B6A
:100D0000022801D90320EFE51B480068C0F34060CA
:100D10000028F2D12CE0A069012800D1E4E51648B2
:100D2000001D0668A069012820D006F48001E06952
:100D300081421BD106F03F01206A814216D147F65D
:100D4000C0703040616AB0EB811F0FD106F44031B2
:100D50000122A06AC2EB5000B1EB004F06D106F0B1
:100D600070612C20005DB1EB006F01D00120BBE56C
:100D70000020B9E5000047420038024070B5044643
:100D80002546681EB0F1807F01D301200FE0681E68
:100D90004FF0E02148610F214FF0FF3001F03CF9A6
:100DA00000204FF0E021886107200861002070BD1D
:100DB0007047704710B50346002200BF93F83C000F
:100DC000012801D1022010BD012083F83C0000BFA2
:100DD00022F0FF00CC6840EA040222F440708C68E4
:100DE00040EA040222F480604C6840EA040222F4E3
:100DF00000600C6840EA040222F480500C6940EA6A
:100E0000040222F400504C6940EA040222F48040BB
:100E1000CC6940EA04021868426400BF002083F8ED
:100E20003C0000BF00BFCEE730B502460B4600BF16
:100E300092F83C00012801D1022030BD012082F847
:100E40003C0000BF022082F83D0010684468106832
:100E5000816824F070041868044310684460144DDD
:100E60001068A84213D01068B0F1804F0FD0114D18
:100E70001068A8420BD0104D1068A84207D00F4D43
:100E80001068A84203D00E4D1068A84205D121F089
:100E900080015868014310688160012082F83D009C
:100EA00000BF002082F83C0000BF00BFC5E7000083
:100EB000000001400004004000080040000C004019
:100EC0000040014010B504460CB9012010BD94F853
:100ED0003D0028B9002084F83C00204600F026F8A8
:100EE000022084F83D00211D206800F0EDFD012066
:100EF00084F8460000BF84F83E0001213F200155E0
:100F0000402001554120015500BF00BF012084F859
:100F1000420043200155442001554520015500BFA2
:100F2000012084F83D000020D0E7000038B50446D9
:100F30002068B0F1804F18D100BF00200090194800
:100F4000006840F00100174908600846006800F09A
:100F50000100009000BF00BF002211461C20FFF7D7
:100F60002DFB1C20FFF71AFB1BE00F49206888426D
:100F700017D100BF002000900A48006840F004002C
:100F8000084908600846006800F00400009000BFAF
:100F900000BF002211461E20FFF710FB1E20FFF7A6
:100FA000FDFA38BD4038024000080040014691F883
:100FB0003D00012801D001207047022081F83D004A
:100FC000164B0868984213D00868B0F1804F0FD0D4
:100FD000134B086898420BD0124B0868984207D010
:100FE000114B0868984203D0104B086898420CD106
:100FF0000868806800F00702062A0CD008680068BC
:1010000040F001000B68186005E00868006840F0D7
:1010100001000B6818600020CEE7000000000140CE
:101020000004004000080040000C00400040014067
:10103000014691F83D00012801D0012070470220AF
:1010400081F83D000868C06840F001000B68D86076
:10105000164B0868984213D00868B0F1804F0FD043
:10106000134B086898420BD0124B0868984207D07F
:10107000114B0868984203D0104B086898420CD175
:101080000868806800F00702062A0CD0086800682B
:1010900040F001000B68186005E00868006840F047
:1010A00001000B6818600020C8E700000000014044
:1010B0000004004000080040000C004000400140D7
:1010C0002DE9F04104460D4600BF94F83C0001288C
:1010D00002D10220BDE8F081012084F83C0000BF6D
:1010E000022084F83D002068866826F0770626F402
:1010F0007F46206886602868502833D00CDC202882
:1011000050D004DC00284BD0102851D149E03028C1
:1011100049D040284CD139E060282DD0702807D024
:10112000B0F5805F03D0B0F5005F41D10DE040E045
:10113000D5E902136A68206800F018FD2068866807
:1011400046F077062068866033E0D5E902136A68C6
:10115000206800F00BFD2068806840F48040216822
:10116000886026E0EA686968206800F0CFFD5021B9
:10117000206800F006FD1CE0EA686968206800F05D
:10118000D8FD6021206800F0FCFC12E0EA68696884
:10119000206800F0BBFD4021206800F0F2FC08E070
:1011A00000BF00BF00BF2968206800F0EAFC00E033
:1011B00000BF00BF012084F83D0000BF002084F87C
:1011C0003C0000BF00BF85E7704710B504462068AB
:1011D0000069C0F34000D8B12068C068C0F3400087
:1011E000B0B16FF00200216808610120207720680B
:1011F000806900F0030018B12046FFF7E5FF05E025
:10120000204600F0DDF8204600F0A6F90020207707
:1012100020680069C0F38000D8B12068C068C0F3BE
:101220008000B0B16FF004002168086102202077CF
:101230002068806900F4407018B12046FFF7C4FFB1
:1012400005E0204600F0BCF8204600F085F90020BB
:10125000207720680069C0F3C000D8B12068C0685A
:10126000C0F3C000B0B16FF008002168086104202D
:1012700020772068C06900F0030018B12046FFF70E
:10128000A3FF05E0204600F09BF8204600F064F93B
:101290000020207720680069C0F30010D8B12068D2
:1012A000C068C0F30010B0B16FF010002168086191
:1012B000082020772068C06900F4407018B12046EB
:1012C000FFF782FF05E0204600F07AF8204600F0A4
:1012D00043F9002020772068006900F0010058B130
:1012E0002068C06800F0010030B16FF00100216893
:1012F0000861204600F032F920680069C0F3C01090
:1013000058B12068C068C0F3C01030B16FF08000E1
:10131000216808612046FFF74BFD20680069C0F393
:10132000801058B12068C068C0F3801030B16FF0F1
:10133000400021680861204600F022F92068006919
:10134000C0F3401058B12068C068C0F3401030B1FD
:101350006FF02000216808612046FFF72AFD10BDCC
:1013600010B586B00446142101A8FEF769FF1149A3
:10137000206888421CD100BF002000900E48006801
:1013800040F001000C4908600846006800F00100C8
:10139000009000BF00BF881501900220029000203D
:1013A000039004900120059001A90448FEF78AFFEC
:1013B00006B010BD0000014030380240000002407D
:1013C000704770B504460D46164600BF94F83C00C1
:1013D000012801D1022070BD012084F83C0000BF2B
:1013E00036B1042E1BD0082E31D00C2E5ED145E034
:1013F0002946206800F0CEFB2068806940F0080094
:10140000216888612068806920F004002168886173
:1014100020688069296908432168886147E0294676
:10142000206800F0E7FB2068806940F400602168D4
:1014300088612068806920F4806021688861206864
:101440008069296940EA0120216888612FE02946E6
:10145000206800F003FC2068C06940F008002168A3
:10146000C8612068C06920F004002168C861206854
:10147000C069296908432168C86118E029462068C5
:1014800000F020FC2068C06940F400602168C86159
:101490002068C06920F480602168C8612068C06944
:1014A000296940EA01202168C86100E000BF00BF4F
:1014B00000BF002084F83C0000BF00BF8BE710B5E0
:1014C00004460CB9012010BD94F83D0028B9002055
:1014D00084F83C00204600F025F8022084F83D0006
:1014E000211D206800F0F0FA012084F8460000BFBA
:1014F00084F83E0001213F20015540200155412044
:10150000015500BF00BF012084F84200432001556F
:10151000442001554520015500BF012084F83D00BD
:101520000020D0E708B50A4A016891420FD100BFF8
:10153000002100910749096841F00101054A116045
:101540001146096801F00101009100BF00BF08BD0C
:1015500000000140443802407047000010B50446C6
:10156000044920680968884202D103A000F044FDC4
:1015700010BD0000A400002074657374000000001A
:10158000704710B504460CB9012010BDA06900B128
:1015900000E000BF94F83D0028B9002084F83C002A
:1015A000204600F027F8242084F83D002068C06819
:1015B00020F400502168C860204600F0CFFB20686E
:1015C000006920F49040216808612068406920F09B
:1015D0002A00216848612068C06840F400502168F2
:1015E000C86000202064202084F83D0084F83E007C
:1015F0000020CAE710B586B00446142101A8FEF702
:101600001FFE1B492068884230D100BF0020009097
:101610001848006840F01000164908600846006845
:1016200000F01000009000BF00BF00BF002000903D
:1016300010481438006840F001000E491439086061
:101640000846006800F00100009000BF00BF4FF4A2
:10165000C0600190022002900020039003200490BB
:101660000720059001A90448FEF72CFE06B010BD26
:101670000010014044380240000002402DE9F84FBC
:1016800004460E46174699464FF0000A94F83D006E
:1016900020285AD106B117B90120BDE8F88F00BF44
:1016A00094F83C00012801D10220F6E7012084F8DB
:1016B0003C0000BF00202064212084F83D00FEF79C
:1016C000F3FE8246A784E784A068B0F5805F04D16A
:1016D000206910B90025B04602E035464FF00008F9
:1016E00000BF002084F83C0000BF1BE053460022EE
:1016F00080212046CDF8009000F046FC08B1032080
:10170000CBE745B9B8F80000C0F30800216848608D
:1017100008F1020803E02878216848606D1CE08C1D
:10172000401EE084E08C0028E0D153460022402196
:101730002046CDF8009000F027FC08B10320ACE76C
:10174000202084F83D000020A7E70220A5E700BF85
:10175000FEE7000000B587B0142102A8FEF770FD77
:1017600000BF002001902748006840F00400254990
:1017700008600846006800F00400019000BF00BF48
:1017800000BF002001900846006840F0800008601B
:101790000846006800F08000019000BF00BF00BF55
:1017A000002001900846006840F0010008600846EB
:1017B000006800F00100019000BF00BF00BF0020E2
:1017C00001900846006840F0020008600846006882
:1017D00000F00200019000BF00BF00224FF4005152
:1017E0000948FEF75BFE4FF4005002900120039081
:1017F00000200490059002A90348FEF763FD07B09E
:1018000000BD0000303802400008024000B591B031
:1018100000200F9010901C2108A8FEF711FD202138
:101820006846FEF70DFD23482349086040F2E73083
:10183000486000212048816040F21F31C1600021D2
:10184000016141618161FFF73AFE08B1FEF737FDA2
:1018500000200F9010900FA91748FFF7E5FA08B184
:10186000FEF72DFD60200890002009900A900B9053
:101870000C900D900E90002208A90F48FFF7A1FDD3
:1018800008B1FEF71CFD002000900190029003902B
:1018900004904FF4005005900020079069460648D8
:1018A000FFF788FA08B1FEF70AFD0348FFF758FD75
:1018B00011B000BD000001401400002000B587B049
:1018C00000200390049005900690019002904FF044
:1018D0008040144908604720486000211148816019
:1018E00041F28731C160002101618161FFF7EAFAAD
:1018F00008B1FEF7E4FC4FF48050039003A90948B7
:10190000FFF7DEFB08B1FEF7DAFC00200190029041
:1019100001A90448FFF788FA08B1FEF7D0FC07B028
:1019200000BD00005C00002000B587B000200390DF
:1019300004900590069001900290144814490860A4
:101940003120486000211248816042F2CF01C1601D
:10195000002101618161FFF7B5FA08B1FEF7AFFC24
:101960004FF48050039003A90948FFF7A9FB08B181
:10197000FEF7A5FC00200190029001A90448FFF7A2
:1019800053FA08B1FEF79BFC07B000BD0008004009
:10199000A400002010B50B480B4908604FF4E1305B
:1019A0004860002108488160C16001610C214161EB
:1019B00000218161C161FFF7E4FD08B1FEF77FFC02
:1019C00010BD000000100140EC00002000BFFEE749
:1019D00000BFFEE77047704710B5FEF76BFD10BD06
:1019E00000B593B0302107A8FEF72AFC142102A805
:1019F000FEF726FC00BF002001902448006840F05C
:101A00008050224908600846006800F0805001902C
:101A100000BF00BF00BF002001901D48006820F4F7
:101A2000404040F400401A4908600846006800F44D
:101A30004040019000BF00BF0120079000040890C3
:101A400002200D9041050E9119210F91A8211091AE
:101A5000022111910421129107A8FEF741FF08B15C
:101A6000FEF72DFC0F20029002200390002004902E
:101A70004FF48050059000200690022102A8FEF746
:101A8000EFFD08B1FEF71BFC13B000BD403802406B
:101A9000007000400348006840F47000014908608D
:101AA0007047000088ED00E010B50248FFF78DFB9D
:101AB00010BD00005C00002010B50248FFF785FB58
:101AC00010BD0000A400002010B50268204B984211
:101AD0000BD0B0F1804F08D01E4B984205D01E4B62
:101AE000984202D01D4B984203D122F070024B68FD
:101AF0001A43174B984214D0B0F1804F11D0154BB8
:101B000098420ED0144B98420BD0144B984208D0F8
:101B1000134B984205D0134B984202D0124B984277
:101B200003D122F44072CB681A4322F080034C693F
:101B300043EA040202608B68C3620B688362044B51
:101B4000984201D10B6903630123436110BD00007A
:101B5000000001400004004000080040000C00406C
:101B600000400140004401400048014030B50C46AF
:101B7000816821F47F4142EA03252543294381609E
:101B800030BD0A46816821F0700142F00703194315
:101B90008160704730B5056A25F001050562026A6B
:101BA0004368846924F0700424F003040D682C4316
:101BB00022F002028D682A430D4DA84206D100BFD3
:101BC00022F00802CD682A4322F00402084DA84200
:101BD00007D123F4807323F400734D692B438D697F
:101BE0002B43436084614D684563026230BD000051
:101BF0000000014030B5056A25F010050562026A53
:101C00004368846924F4E04424F440740D6844EA91
:101C1000052422F020028D6842EA05120E4DA842EA
:101C200007D100BF22F08002CD6842EA051222F0FF
:101C30004002094DA84209D123F4806323F40063D4
:101C40004D6943EA85038D6943EA850343608461F6
:101C50004D688563026230BD0000014030B5056A01
:101C600025F480750562026A4368C46924F0700433
:101C700024F003040D682C4322F400728D6842EABC
:101C800005220F4DA84207D100BF22F40062CD68A3
:101C900042EA052222F48062094DA84209D123F4C8
:101CA000805323F400534D6943EA05138D6943EAD9
:101CB00005134360C4614D68C563026230BD000016
:101CC0000000014030B5056A25F480550562036ABD
:101CD0004468C26922F4E04222F440720D6842EA8C
:101CE000052223F400538D6843EA0533064DA842CC
:101CF00004D124F480444D6944EA85144460C261EF
:101D00004D680564036230BD0000014030B50B46EC
:101D10001446026A056A25F001050562816921F011
:101D2000F00141EA041122F00A021A4381610262C1
:101D300030BD30B50B461446056A25F01005056226
:101D40008169026A21F4704141EA043122F0A00263
:101D500042EA03128161026230BD00002DE9F84FB2
:101D600004462068006920F44050E1680843216877
:101D700008612169A068084361690843E169084373
:101D800000902068C06849F20C61884300990843BC
:101D90002168C8602068406920F44070A169084348
:101DA0002168486176492068884203D075492068D7
:101DB000884203D1FEF72CFD814602E0FEF718FDB4
:101DC0008146E069B0F5004F6CD102206168A0FB4C
:101DD000015003461920A9FB007001462A463846E7
:101DE000FEF7F6F96421B0FBF1F04FEA001A022089
:101DF0006168A0FB01510B461920A9FB00712A461E
:101E00003846FEF7E5F9834602206168A0FB0150E1
:101E100003461920A9FB00712A463846FEF7D8F977
:101E20006421B0FBF1F000EBC00101EB0010ABEB63
:101E30008000322101EBC0006421B0FBF1F000F022
:101E4000F8000AEB400A02206168A0FB015003463B
:101E50001920A9FB007001462A463846FEF7B8F95A
:101E6000834602206168A0FB015003461920A9FBAC
:101E700000712A463846FEF7ABF96421B0FBF1F059
:101E800000EBC00101EB0010ABEB8000322101EB55
:101E9000C0006421B0FBF1F000F00700504421685D
:101EA00088606AE004206168A0FB015003461920A5
:101EB000A9FB007001462A463846FEF789F982469A
:101EC00004206168A0FB015003461920A9FB0070A3
:101ED00001462A463846FEF77BF96421B0FBF1F053
:101EE00000EBC00101EB0010AAEB8000322101EBF6
:101EF00000106421B0FBF1F000F0F00A04206168EA
:101F0000A0FB017003461920A9FB00513A46284660
:101F1000FEF75EF96421B0FBF1F00AEB001A042031
:101F20006168A0FB01510B461920A9FB00712A46EC
:101F30003846FEF74DF9834604206168A0FB015046
:101F400003461920A9FB007001462A463846FEF7D1
:101F50003FF96421B0FBF1F000EBC00101EB001090
:101F6000ABEB8000322101EB00106421B0FBF1F0FB
:101F700000F00F00504421688860BDE8F88F000031
:101F800000100140001401402DE9F04104460D46C7
:101F900017469846069E21E0701CF8B12EB1FEF758
:101FA00083FAA0EB0800B04218D92068C06820F47A
:101FB000D0702168C8602068406920F00100216865
:101FC0004861202084F83D0084F83E0000BF0020D6
:101FD00084F83C0000BF0320BDE8F0812068006861
:101FE0002840A84201D1012000E00020B842D3D00F
:101FF0000020F1E700BFFEE7014A024900F02FB8D8
:10200000812000081000002002480068C0F3022070
:10201000704700000CED00E010B5002804DB0A0753
:10202000130E054A135406E00A07140E034A00F083
:102030000F031B1FD45410BD00E400E018ED00E0B6
:1020400002E008C8121F08C1002AFAD17047704781
:10205000002001E001C1121F002AFBD170472DE9C9
:10206000F04116460F460446002503E03946B047C6
:10207000641C6D1C20780028F8D12846BDE8F0814A
:1020800013B50C464FF47A73012269460248FFF7F4
:10209000F5FA00981CBD0000EC000020FEF716FACF
:1020A000FFF79EFCFFF756FBFFF7B0FBFFF706FCC0
:1020B000FFF770FCFFF738FC0848FEF777FF07488A
:1020C000FEF7B6FF06A0FFF797FF0748FEF7B0FF41
:1020D00002E006A0FFF790FFFBE700005C00002095
:1020E0007465737400000000A4000020C8CFCEAA5D
:1020F000BFC9D2D4B7A2CBCDBABAD7D600000000A0
:1021000000000000000000000102030406070809A7
:102110000000000001020304382100080000002034
:1021200014000000402000084C210008140000208A
:102130001C050000502000080000000010000000F6
:0C214000010000000024F400000000007A
:040000050800019559
:00000001FF
